:020000040000fa
:080000000002040000000000f2
:020000040000fa
:040008005803000099
:020000040000fa
:04000c005803000095
:020000040000fa
:040010005803000091
:020000040000fa
:04001400580300008d
:020000040000fa
:040018005803000089
:020000040000fa
:04001c005803000085
:020000040000fa
:040020005803000081
:020000040000fa
:04002400580300007d
:020000040000fa
:04002800c80200000a
:020000040000fa
:04002c005803000075
:020000040000fa
:040030005803000071
:020000040000fa
:04003400580300006d
:020000040000fa
:040038005803000069
:020000040000fa
:04003c005803000065
:020000040000fa
:040040005803000061
:020000040000fa
:040044001c03000099
:020000040000fa
:04004800320300007f
:020000040000fa
:04004c005803000055
:020000040000fa
:040050005803000051
:020000040000fa
:04005400580300004d
:020000040000fa
:040058005803000049
:020000040000fa
:04005c005803000045
:020000040000fa
:040060005803000041
:020000040000fa
:04006400580300003d
:020000040000fa
:040068005803000039
:020000040000fa
:04006c005803000035
:020000040000fa
:040070005803000031
:020000040000fa
:04007400580300002d
:020000040000fa
:04007800040300007d
:020000040000fa
:04007c005803000025
:020000040000fa
:040080005803000021
:020000040000fa
:04008400580300001d
:020000040000fa
:040088005803000019
:020000040000fa
:04008c005803000015
:020000040000fa
:040090005803000011
:020000040000fa
:04009400480300001d
:020000040000fa
:040098005003000011
:020000040000fa
:04009c000c03000051
:020000040000fa
:0400a0005803000001
:020000040000fa
:0400a40058030000fd
:020000040000fa
:0400a80058030000f9
:020000040000fa
:0400ac0058030000f5
:020000040000fa
:0400b00058030000f1
:020000040000fa
:0400b40058030000ed
:020000040000fa
:0400b80058030000e9
:020000040000fa
:0400bc0058030000e5
:020000040000fa
:0400c00058030000e1
:020000040000fa
:0400c40058030000dd
:020000040000fa
:0400c80058030000d9
:020000040000fa
:0400cc0058030000d5
:020000040000fa
:0400d00058030000d1
:020000040000fa
:0400d40058030000cd
:020000040000fa
:0400d80058030000c9
:020000040000fa
:0400dc0058030000c5
:020000040000fa
:0400e00058030000c1
:020000040000fa
:0400e40058030000bd
:020000040000fa
:0400e80058030000b9
:020000040000fa
:0400ec0058030000b5
:020000040000fa
:0400f00058030000b1
:020000040000fa
:0400f40058030000ad
:020000040000fa
:0400f80058030000a9
:020000040000fa
:0400fc0058030000a5
:020000040000fa
:0401000058030000a0
:020000040000fa
:04010400580300009c
:020000040000fa
:040108005803000098
:020000040000fa
:04010c005803000094
:020000040000fa
:040110005803000090
:020000040000fa
:04011400580300008c
:020000040000fa
:040118005803000088
:020000040000fa
:04011c005803000084
:020000040000fa
:040120005803000080
:020000040000fa
:04012400580300007c
:020000040000fa
:040128005803000078
:020000040000fa
:04012c005803000074
:020000040000fa
:040130005803000070
:020000040000fa
:04013400580300006c
:020000040000fa
:040138005803000068
:020000040000fa
:04013c005803000064
:020000040000fa
:040140005803000060
:020000040000fa
:04014400580300005c
:020000040000fa
:040148005803000058
:020000040000fa
:04014c005803000054
:020000040000fa
:040150005803000050
:020000040000fa
:04015400580300004c
:020000040000fa
:040158005803000048
:020000040000fa
:04015c005803000044
:020000040000fa
:040160005803000040
:020000040000fa
:04016400580300003c
:020000040000fa
:040208005803000097
:020000040000fa
:04020c005803000093
:020000040000fa
:04021000580300008f
:020000040000fa
:04021400580300008b
:020000040000fa
:040218005803000087
:020000040000fa
:04021c005803000083
:020000040000fa
:04022000580300007f
:020000040000fa
:04022400580300007b
:020000040000fa
:040228005803000077
:020000040000fa
:04022c005803000073
:020000040000fa
:04023000580300006f
:020000040000fa
:04023400580300006b
:020000040000fa
:040238005803000067
:020000040000fa
:04023c005803000063
:020000040000fa
:04024000580300005f
:020000040000fa
:04024400580300005b
:020000040000fa
:040248005803000057
:020000040000fa
:04024c005803000053
:020000040000fa
:04025000580300004f
:020000040000fa
:04025400580300004b
:020000040000fa
:040258005803000047
:020000040000fa
:04025c005803000043
:020000040000fa
:04026000580300003f
:020000040000fa
:04026400580300003b
:020000040000fa
:040268005803000037
:020000040000fa
:04026c005803000033
:020000040000fa
:04027000580300002f
:020000040000fa
:04027400580300002b
:020000040000fa
:040278005803000027
:020000040000fa
:04027c005803000023
:020000040000fa
:04028000580300001f
:020000040000fa
:04028400580300001b
:020000040000fa
:040288005803000017
:020000040000fa
:04028c005803000013
:020000040000fa
:04029000580300000f
:020000040000fa
:04029400580300000b
:020000040000fa
:040298005803000007
:020000040000fa
:04029c005803000003
:020000040000fa
:0402a00058030000ff
:020000040000fa
:0402a40058030000fb
:020000040000fa
:0402a80058030000f7
:020000040000fa
:0402ac0058030000f3
:020000040000fa
:0402b00058030000ef
:020000040000fa
:0402b40058030000eb
:020000040000fa
:0402b80058030000e7
:020000040000fa
:0402bc0058030000e3
:020000040000fa
:0402c00058030000df
:020000040000fa
:0402c40058030000db
:020000040000fa
:0402c80058030000d7
:020000040000fa
:0402cc0058030000d3
:020000040000fa
:0402d00058030000cf
:020000040000fa
:0402d40058030000cb
:020000040000fa
:0402d80058030000c7
:020000040000fa
:0402dc0058030000c3
:020000040000fa
:0402e00058030000bf
:020000040000fa
:0402e40058030000bb
:020000040000fa
:0402e80058030000b7
:020000040000fa
:0402ec0058030000b3
:020000040000fa
:0402f00058030000af
:020000040000fa
:0402f40058030000ab
:020000040000fa
:0402f80058030000a7
:020000040000fa
:0402fc0058030000a3
:020000040000fa
:04030000580300009e
:020000040000fa
:04030400580300009a
:020000040000fa
:040308005803000096
:020000040000fa
:04030c005803000092
:020000040000fa
:04031000580300008e
:020000040000fa
:04031400580300008a
:020000040000fa
:040318005803000086
:020000040000fa
:04031c005803000082
:020000040000fa
:04032000580300007e
:020000040000fa
:04032400580300007a
:020000040000fa
:040328005803000076
:020000040000fa
:04032c005803000072
:020000040000fa
:04033000580300006e
:020000040000fa
:04033400580300006a
:020000040000fa
:040338005803000066
:020000040000fa
:04033c005803000062
:020000040000fa
:04034000580300005e
:020000040000fa
:04034400580300005a
:020000040000fa
:040348005803000056
:020000040000fa
:04034c005803000052
:020000040000fa
:04035000580300004e
:020000040000fa
:04035400580300004a
:020000040000fa
:040358005803000046
:020000040000fa
:04035c005803000042
:020000040000fa
:04036000580300003e
:020000040000fa
:04036400580300003a
:020000040000fa
:100400008f8720000e7f24000e018800000000006e
:10041000000020000000e000020032000001200087
:100420002002880014000700a30007000000e0007d
:1004300003003a0080c921000100200002003700bb
:100440000000200001002000810f70000100320038
:1004500014000700000020000000e000020032004d
:100460000000020000000000a41f020000000000c5
:100470000040da000000fe004440a90060002000b7
:100480000000e0000300320000002000a00188000e
:100490004440a800000006008a1f78008b1f7800e7
:1004a0000000060091018800800478000000eb0045
:1004b0001a003700e284440032a0b4009905ba0063
:1004c000e284440032a0b4009906ba00e2844400f9
:1004d00032a0b4000006eb00476fde00fd07b2005b
:1004e000636ce10003003a00ebff07000000eb0043
:1004f0000a003700606ce10004003a00005deb0088
:100500008b05e900fdff3e00040037006168e10053
:10051000010032000086eb000b00070019c7ba008b
:100520001905ba000e04e00003003a000a00e000da
:10053000e0ff3a0000000600fe07b2009e018800be
:100540008a047800f5ff3700395dba008b05e900b1
:100550000c003200295dba008b05e900080032006a
:100560000c00e00003003a00e284440032a0b40032
:10057000f5ff370019ddba008b05e900faff3a00f4
:100580008904e800e184440032a0b40000000600c1
:100590003600f800809fbe00829fbe00849fbe0090
:1005a000869fbe000000fa008400a90010048000ad
:1005b00000407800614060000080fb00540e07009e
:1005c0001004800000407800614060000004a20038
:1005d000614060000080fb00610060001104800049
:1005e0000100a10001007000100488000080fa00e2
:1005f0004f03be004f02be004f01be004f00be00c1
:100600003600f900004006000000fa008680a900cc
:100610000080fa0000400600801f78000000fa0009
:1006200087a0a90010002000204088000080fa0068
:100630004f00780000400600801f78000000fa009c
:10064000404080000000e80040408800100020008a
:100650006040880084e0a9000080fa004f00780024
:1006600000400600801f78000000fa005040800023
:100670000000e80050408800100020007040880012
:100680008500a9000080fa004f00780000400600b5
:100690000000fa008760a9000080fa000040060010
:1006a0000000fa008780a9000080fa0000400600e0
:1006b0000040da000000fe000000050003f0a20088
:1006c000889fbe008a9fbe008c1f7800fc00070038
:1006d000030133006450e1004f0032006420e10068
:1006e0005200320003826c0007003b000905d00075
:1006f0000306d000820f54000c065d000200390092
:1007000002003200890178000306780085825500d6
:1007100004003d000003fd008103fd008502ea00a6
:100720008b854200840f720002003b0060001000c5
:10073000e08018006011b8000005eb007a28e100a5
:100740000a00390006007800c75ddd00f707b20037
:10075000878075002d003700828171000a017800c2
:10076000610560008180d1000080d3008502e9002e
:10077000f9ff3b00060440008784480002003b006c
:1007800060041400e0841c000988a3000700320004
:100790008a81710082817100610164008904d10045
:1007a0000884d3008b05e800170037000978a30000
:1007b00013003a000b00e000130034008b05e90041
:1007c0000804440089844c000a4474000978a3009a
:1007d0000d003a000b00e000070034008b05e90033
:1007e0000804440089844c0001003a000b002000fa
:1007f0000978a300f7ff32000001eb000200370088
:10080000828171000a017800720007000cf0a700d5
:1008100001f0a000bb0037006420e10002003a00b4
:10082000838f6c00bb0033000801be000200be00d5
:10083000b4003700889fbe008a9fbe008c1f7800de
:100840009f000700a600330003866c006450e1009f
:100850002e0032006420e100330032006150e100dc
:100860002f0032006120e100310032008585550003
:10087000eb07b00009002000080420000500370045
:100880000804440089844c000a0031000603430038
:1008900087834b000001530081815b00f8ff330028
:1008a0000203be000800a0000804440089844c0034
:1008b000f6ff3900c639dd00830173000100320004
:1008c000130020008904d1000884d3000998a300f4
:1008d000050032000800a7000300a0008904d10031
:1008e0000884d3008b05e8008904d1000884d30074
:1008f0000001eb000281d2003600070001f0a100e8
:100900000cf0a70001f0a0007e0037006420e10099
:10091000800032000801be000200be00f7ff370071
:100920006120e1007b0032006000b800f3ff370077
:100930000000200001f82700f0ff3700140020001d
:10094000ad013700f4ff2f00ab0137000001be00fe
:10095000460007000470a70003f0a10003f8a300fd
:1009600013003a006509b10010003200090035009b
:100970006928e100020035000100280000000500a0
:1009800000004000818048008502e900fcff3a0039
:1009900000000600f88f4200050035008100d100fc
:1009a0000080d3008502e800fcff3a00000006004a
:1009b0008000eb00000005004f89de008201780016
:1009c000a80137006011b800b6013700040020000c
:1009d0008901370081002000618055000b003d0037
:1009e0000b00200061fe2f000100e1001d0034001b
:1009f00082817100610164008904d1000884d30000
:100a00000000e800faff3a00710020006100640075
:100a1000030070000200600009003200610444001d
:100a2000e0844c000988a500050032008b05e80031
:100a30006808e10002003a008904d1000884d3006c
:100a4000f20f20000258e10005003d00c75ddd0007
:100a5000f907b200898075000800780000000600e0
:100a60000bf827008b00780000000500c70ade00a5
:100a7000f107b200f50fb20008003200e1cf4200ea
:100a8000020032000170a00024000500810f7000f8
:100a9000010032000408050044000500810f7000c9
:100aa00002003a00140005008502e9000000400041
:100ab00081c04800fcff3b000170a000240005003d
:100ac0000004be00e9ff07000003be000405be00ed
:100ad0000200be00e5ff0700844f7500000006001d
:100ae0000200be006450e100050036006420e10011
:100af000020036000968a30001003a000800be00a9
:100b00000160a0004f0678004f05be004f04be00f4
:100b100000000600f0ff2f00f1ff2700f9ff37006b
:100b2000889fbe008a9fbe008c1f7800e4ff0700ec
:100b3000ebff330003866c006450e10024003200b8
:100b40006420e100270032006150e1002200320001
:100b50006120e100210032008b854200eb07b100eb
:100b60000134b800003ab8000804420089844a0001
:100b7000013ab8000030b8008880400009014a00fe
:100b80000400330000004000818048000201490059
:100b90008b05e900c909dd00830170000100320006
:100ba00013002000c814de004814dd004709de00f1
:100bb0001200b200c808de000884700085ff07003c
:100bc00001f0a1000cf0a70001f0a000cdff37005c
:100bd0006120e100cfff32000801be000200be002c
:100be000f7ff37006150e100fcff3a00c9ff370012
:100bf000889fbe008a9fbe0030044200b0844a0035
:100c000030054b0090854b006000b1000898be0095
:100c10000a90be000440e10005c8e10006d0e100f2
:100c200007d8e10002003100680040001008e80029
:100c30004f05be004f04be0000000600889fbe00a6
:100c40008a9fbe003004be002005be000418540078
:100c500005985c0006185d0007985d0011002000f3
:100c60000440e10005c8e10006d0e10007d8e1003a
:100c7000010039008000eb00108810004f05be0015
:100c80004f04be00000006001200fa00889fbe005c
:100c90008a9fbe008c9fbe00e0b79f00f1b79f0007
:100ca00082bf9f0093bf9f000605be000404be00e4
:100cb0000000eb00d0b79f00c0b79f00b0b79f0007
:100cc000a0b79f0090b79f000006eb005fb19700b0
:100cd000cfb09700820141003fb097000200e000d2
:100ce00004003d00370007007e805700c0ff07006a
:100cf00003003700330007007e805700cfff070056
:100d0000dfb697000d00e0000c0035006fb29700d1
:100d1000ffb297000fbb97009fbb97001000200009
:100d2000010020006011b800000272008182720090
:100d300002037300838373001b0007000c06e800a6
:100d400001042000810f5600e0ff3a000d00e00092
:100d500004003d000802be000a03be007e8057006a
:100d6000a3ff07005fa897000000e00005003a001d
:100d70001fb29700afb297003fb39700cfb3970071
:100d8000090007006fb09700ffb097000fb99700f8
:100d90009fb997004f06be004f05be004f04be002e
:100da0000080fa00000006000100070000000600b5
:100db000a4b79f00b5b79f00c6b79f00d7b79f00e5
:100dc000000006004f09de0082817100b3b79f006a
:100dd0004f01de008180400082807000a1b79f003b
:100de0008fb097004f09de00000040000200700045
:100df00090b79f007fa897004f01de0081804000e0
:100e00008280700081b79f000d0007004f3ade001e
:100e10000000400004007000f0af9f0008000700d1
:100e20000402420085824a0006034b0087834b0080
:100e3000dfff07000802be000a03be000000060034
:100e40002fb29700bfb297004fb39700dfb3970060
:100e500000000600881f780018002000881f780016
:100e600089ff07008f87e9004f0478000000060023
:100e7000801feb0084ff07008f87e9000000060059
:100e8000889fbe008a9fbe00e00f5000e08f580090
:100e9000e00f5900e08f59000c003d006044b8009d
:100ea0006055b8000000540081805c0002015d00c4
:100eb00083815d00180020001500070008003d0038
:100ec000180007000004eb00050037000004eb00e9
:100ed0000f00070002003d0012000700180020006c
:100ee000dcff07000800e000060032006022b800c6
:100ef0006033b8000000520081805a0002015b009c
:100f000083815b004f05be004f04be000000060059
:100f1000e00f5200e08f5a00e00f5b00e08f5b00b3
:100f2000000006006044b8006055b8000402540098
:100f300085825c0006035d0087835d00000006007b
:100f4000889fbe008a9fbe008c1f7800e00f500073
:100f5000e08f5800e00f5900e08f59000d003d0070
:100f60006044b8006055b8000000540081805c0007
:100f700002015d0083815d001c0020000820e1006b
:100f800009a8e1000ab0e1000bb8e1000d003d0046
:100f9000080037000006eb00e00f5200e08f5a0017
:100fa000e00f5b00e08f5b0006003d006044b8008e
:100fb0006055b8000402540085825c0006035d00a1
:100fc00087835d00aaff07000c00e00006003200e6
:100fd0006022b8006033b8000000520081805a00df
:100fe00002015b0083815b004f0678004f05be0065
:100ff0004f04be0000000600889fbe008a9fbe000e
:10100000841f7800aefe07004f0078001100330007
:10101000f0ff2f00838f6c0006003b000405650085
:101020000a00a7000800370009f0a6001000200001
:1010300008003700820f5400838f5c0003003900e2
:101040001000200001003e000000200009f0a70071
:101050000000ea004f05be004f04be000000e000a3
:1010600000000600881f7800030478000300e000f9
:1010700007003d0060001000e080180060011900ca
:10108000e081190002003b0001f02d000300370051
:101090000400070008f0a70001f0a0004f0478004a
:1010a00000000600889fbe008a9fbe00008270007c
:1010b0000402710004827100260032000004be00a8
:1010c0000200be006011b8006b09200095022000ec
:1010d0000182cf000a0039000541b1000082cf0033
:1010e000070039000541b1000982cf000400390032
:1010f0000541b1000882cf00010039000541b1006f
:1011000005425200120032000a003b008281710049
:10111000610164008100d1000080d3008984d30084
:101120000884d3008b05e8000442e800f7ff3a008a
:10113000070037000804440089844c000000480080
:10114000818048008b05e9000442e900f9ff3a007c
:1011500020fe07004f05be004f04be000000060041
:020000040000fa
:0c116000e7e70000e7e70000e700000000
:020000040000fa
:10116c000000fa000041eb0011c0b30030c0b30026
:10117c00330507000041eb0021c0b30030c0b300c1
:10118c002f0507000080fa00000006000000fa009e
:10119c0012c0b30021c0b30030c0b3002805070053
:1011ac0012c0b30011c0b30030c0b3002405070057
:1011bc000080fa00000006000400fa0020479800a6
:1011cc000040eb00004f78002e4090000004e0003f
:1011dc00150032002e409000e54f500012003e00ea
:1011ec000040eb00104798000b0037001e409000a9
:1011fc000080fb00110020000008dd00804078001a
:10120c001e40780000c07000004f78001e40900017
:10121c000040e800104798009e4090002e4090003f
:10122c0080cf5000f1ff39001e41780021c0b3007f
:10123c0030c0b300020507000080fa000000060071
:10124c000400fa00204798000040eb00004f7800a3
:10125c002e4090000004e000150032002e4090005b
:10126c00e54f500012003e000040eb001047980084
:10127c000b0037001e4090000080fb001100200086
:10128c000008dd00804078001e40780000c070002f
:10129c00004f78001e4090000040e8001047980076
:1012ac009e4090002e40900080cf5000f1ff3900fe
:1012bc001e41780011c0b30030c0b300e004070039
:1012cc000080fa00000006000200fa00004f7800cf
:1012dc001e407800e24f5000080036001e40780097
:1012ec00e54f500005003e001ec0e90000417800ab
:1012fc0031c0b30030c0b300d10407000080fa0045
:10130c00000006000200fa00004f78001147980018
:10131c001e407800ef4f50000c003e001e40900025
:10132c00ef4f500009003e001e80fb004400dd0022
:10133c00804078001e40900000c070000041780092
:10134c0041c0b30030c0b300bd0407000080fa00f8
:10135c00000006000200fa00004f78001e407800e2
:10136c000004e000040035001e41780051c0b300b9
:10137c0030c0b300b20407000080fa000000060081
:10138c000400fa00004f780011479800224798009b
:10139c001e4078000004e000030032001e4078007c
:1013ac00e14f500017003a001e409000e34f5000f0
:1013bc0014003e002e4090000004e00003003200b8
:1013cc002e409000e14f50000e003a001e80fb00b2
:1013dc004300dd00804078001e4090000080fb0040
:1013ec00000040000040780080c070002e4090004b
:1013fc0000c070000041780061c0b30030c0b30081
:10140c008f0407000080fa00000006000000fa00bc
:10141c000041eb008040eb00a0c0b3008804070043
:10142c000080fa00000006000000fa000041eb000a
:10143c00d1c1b30030c0b300810407000080fa00b2
:10144c00000006000200fa00004f780000c2b30052
:10145c009e40780080cf500004003e001e41780072
:10146c0011c1b30030c0b300750407000080fa004e
:10147c00000006000200fa00000f780001c1b30062
:10148c001e007800d40407000080fa00000006005b
:10149c000200fa00000f7800a1c0b3001e00780013
:1014ac00cd0407000080fa00000006000400fa00da
:1014bc00004f7800110798001e4078000004e000ef
:1014cc00080032001e407800e54f500005003e0039
:1014dc009e4078006ac04000804078001e0090005a
:1014ec00bd0407000080fa00000006000200fa00ac
:1014fc00000f78001e007800deff07001e00780049
:10150c00e3ff07000080fa00000006000000fa006c
:10151c00a2c0b3008040eb0030c0b3004804070009
:10152c00e05a210001002000590a07000080fa004f
:10153c00000006000600fa008001eb0012002000fb
:10154c00a1c0b30010c4b300100107000428ef00c1
:10155c000628ef000040eb00004f78000500370034
:10156c001e80fb00818220000041eb00827078001d
:10157c001e4fe8001e407800ff4f5000f8ff360069
:10158c000068ef00e1004700028b2800040009000e
:10159c00b25878000428ef000228ef00f0fe070094
:1015ac0010c0b30004ff070031c0b3000040eb00d3
:1015bc0054ff07000040eb0021ff070050c0b300b0
:1015cc0041ff070010c0b30062ff070010c0b3005a
:1015dc009cff070012c0b30031c0b30010c0b300b1
:1015ec0067ff07000e00e800c0ff0700240007009b
:1015fc002a000700c5ff07001000200010408800db
:10160c000080fa00000006000000fa000001eb0068
:10161c0071c0b30010c4b300960107001000200085
:10162c00104088000080fa00000006000000fa005c
:10163c000041eb008040eb000040eb000004070091
:10164c000080fa00000006000000fa000041eb00e8
:10165c0081c0b30010c0b300f90307000080fa008a
:10166c00000006000000fa000041eb0071c1b3005d
:10167c0010c0b300f20307000080fa00000006005f
:10168c000000fa000041eb008040eb0070c0b3009a
:10169c00eb0307000080fa00000006000000fa00cf
:1016ac000041eb008040eb0080c0b300e403070076
:1016bc000080fa00000006000200fa00004f7800db
:1016cc001e4178008040eb0060c0b300dc030700d3
:1016dc000080fa00000006000200fa000041eb0056
:1016ec008040eb0010c0b300d5030700004f78001a
:1016fc001e04a1001e4178008040eb0030c0b300f6
:10170c00cf0307001200200071c0b30010c4b30057
:10171c00580107000080fa00000006000200fa00e1
:10172c00004f780010408000e10f500007003a0095
:10173c00d3ff07001e407800dfff0700e6ff07001d
:10174c0020002000104088000a0037001040800064
:10175c00e30f500007003a00abff0700c8ff07007b
:10176c001e407800d4ff0700dbff0700200020009c
:10177c00104088000080fa00000006000200fa0009
:10178c000041eb008040eb0010c0b300ac0307003d
:10179c00004f78001e04a0001e4178008040eb0032
:1017ac0030c0b300a60307001200200071c0b300c4
:1017bc0010c4b3002f0107000080fa0000000600df
:1017cc000000fa0010408000e10f500003003a00c6
:1017dc00eaff070030002000104088000080fa006b
:1017ec00000006000200fa00881f78000041eb00a0
:1017fc0071c1b30010c0b300910307000080fb005f
:10180c0061006000000f78001300370000c8bf00b3
:10181c000084fb008040eb0010c6b300640307009b
:10182c008182200080707c000041eb0071c1b3000c
:10183c0010c0b300820307000080fb006100600051
:10184c00000f780000c8bf000040e80000e8b700b7
:10185c0010002000304088001e0078000000e000de
:10186c0003003a0000c8bf00ff4f5000e7ff3600ee
:10187c004f0478000080fa00000006000200fa0015
:10188c0020408000e10f50001f003a000428ef00b8
:10189c0010408000e20f50000c003a005aff070085
:1018ac000041eb008040eb000040eb0064030700bc
:1018bc00004f78001e44a0001e41780071c0b30098
:1018cc0030c0b3005e0307000f00370010408000eb
:1018dc00e30f50000c003a004bff0700c1ff07005c
:1018ec000041eb008040eb000040eb00540307008c
:1018fc00004f78001e64a0001e41780071c0b30038
:10190c0030c0b3004e0307000080fa000000060050
:10191c000000fa00aaff070030408000e10f5000e1
:10192c0013003a0000c8bf000080fb000000e90073
:10193c0081822000e140780030c5b30080cf500098
:10194c0009003a00a1c0b30010c4b3002001070085
:10195c000080fb000080ea0000017800a1c0b30009
:10196c0010c4b300c30007000068ef000628ef00a6
:10197c000080fa00000006000000fa0030c5b30039
:10198c0066ff07000080fa00000006000600fa005f
:10199c00004f780011479800120798002307980011
:1019ac001e80fb0021042000810f50003f003200fc
:1019bc0031042000810f500072003200110420000d
:1019cc00810f5000a8003a001e4090000080fb00e0
:1019dc00ea0f500033003e00110020000008dd002b
:1019ec00c1792000810060000100e0001f003a0076
:1019fc00630060000000e00001003a00290037009d
:101a0c001e4090000080fb00110020000008dd004b
:101a1c008080ea0060198000808060001e40900089
:101a2c000080fb001e0190000010dd000100700022
:101a3c00601988001e4090000080fb0011002000ff
:101a4c000008dd008080ea000016800080806000c5
:101a5c001e4090000080fb002e0190000010dd0065
:101a6c0001007000001688000f0037001e40900027
:101a7c000080fb00110020000008dd008080ea00df
:101a8c0000168000808060001e4090000080fb00eb
:101a9c002e0190000010dd0001007000001688007f
:101aac000100370000000000700037001e4090005d
:101abc000080fb000000e00030003500e30f500018
:101acc0003003400ef0f50002c003c001d003700c9
:101adc001e4090000080fb000080e80011002000f8
:101aec000008dd008080ea006019800080806000c2
:101afc001e4090000080fb000080e8001e0190005a
:101b0c000010dd0001007000601988001e4090007c
:101b1c000080fb00110020000008dd008080ea003e
:101b2c0040168000808060001e4090000080fb000a
:101b3c002e0190000010dd0001007000401688009e
:101b4c000f0037001e4090000080fb0011002000a9
:101b5c000008dd008080ea00401680008080600074
:101b6c001e4090000080fb002e0190000010dd0054
:101b7c0001007000401688000100370000000000d2
:101b8c003a0037001e4090000080fb000000e0008f
:101b9c0030003500e20f500003003400e90f500014
:101bac002e003c001d0037001e4090000080fb0002
:101bbc0066004000110020000008dd008080ea0073
:101bcc0060198000808060001e4090000080fb0047
:101bdc00660040001e0190000010dd000100700046
:101bec00601988001e4090000080fb00110020004e
:101bfc000008dd008080ea00801680008080600094
:101c0c001e4090000080fb002e0190000010dd00b3
:101c1c000100700080168800110037001e409000f3
:101c2c000080fb00110020000008dd008080ea002d
:101c3c0080168000808060001e4090000080fb00b9
:101c4c002e0190000010dd0001007000801688004d
:101c5c000300370000000000010037000000000006
:101c6c000000000001003700000000000080fa00b6
:101c7c00000006000400fa00004f7800114798009d
:101c8c00120798001e80fb0021042000810f5000d9
:101c9c002100320031042000810f5000330032004b
:101cac0011042000810f500046003a001e409000a5
:101cbc000080fb00ea0f500015003e0011002000d0
:101ccc008008dd00f0792000008060000000e0005a
:101cdc0001003a000e0037001e4090000080fb000f
:101cec00110020000008dd008080ea002016800032
:101cfc00808060001e4090000080fb001e01900060
:101d0c000010dd0001007000201688000100370073
:101d1c00000000002c0037001e4090000080fb00eb
:101d2c0060004000ef0f50000e003e001e4090007f
:101d3c000080fb00110020000008dd008080ea001c
:101d4c0060168000808060001e4090000080fb00c8
:101d5c001e0190000010dd0001007000601688006c
:101d6c000100370000000000170037001e409000f3
:101d7c000080fb0060004000e90f50000e003e00a8
:101d8c001e4090000080fb00110020000008dd00c8
:101d9c008080ea00a0168000808060001e409000c9
:101dac000080fb001e0190000010dd00010070009f
:101dbc00a0168800010037000000000000000000a1
:101dcc0001003700000000000080fa00000006004f
:101ddc000200fa00004f7800114798001e80fb00ab
:101dec0021042000810f5000170032003104200024
:101dfc00810f50002000320011042000810f500090
:101e0c0029003a001e4090000080fb00ea0f5000b1
:101e1c0027003e00110020008008dd00f079200032
:101e2c00008060000000e0002300320011168000ea
:101e3c001e4090000080fb000008de00004078008f
:101e4c0061406000220037001e4090000080fb00c3
:101e5c0060004000ef0f500019003e00511680004a
:101e6c001e4090000080fb000008de00004078005f
:101e7c0061406000160037001e4090000080fb009f
:101e8c0060004000e90f50000f003e0091168000ea
:101e9c001e4090000080fb000008de00004078002f
:101eac00614060000a0037000000000007003700a6
:101ebc0000000000050037000000000003003700a0
:101ecc0000000000010037000000000000c0eb0023
:101edc000080fa00000006000400fa00004f7800b1
:101eec00110798001e80fb0021042000810f500078
:101efc000900320031042000810f5000090032002b
:101f0c0011042000810f50000a003a009e0090003e
:101f1c0021168800080037009e009000611688008a
:101f2c00050037009e009000a116880000000000fc
:101f3c0001003700000000000080fa0000000600dd
:101f4c000200fa00004f78001e80fb0021042000e4
:101f5c00810f50000800320031042000810f500026
:101f6c000700320011042000810f500006003a00d7
:101f7c001016800005003700501680000300370053
:101f8c0090168000010037000000eb000080fa0082
:101f9c00000006000000fa0041168000f03f280007
:101fac00008060004016880051168000f03f280029
:101fbc000080600050168800010e8000f0f02f00a9
:101fcc00008060000040a000000e8800000e800021
:101fdc00c000b300000e8800010e8000c0ff2f006f
:101fec0000806000000e8800c221ef00c941a900ea
:101ffc00c921a900c901a800c8c1a800c8a1a8008e
:10200c00c881a800c801a900e134800000fe2f009f
:10201c0000806000f000b300e0348800c841a800e4
:10202c00c1e1a80040012000190007000080fa005f
:10203c00000006000000fa00d0c2a900d0e2a900fe
:10204c00d2c2a900d2e2a900012e8000f0f02f002c
:10205c00008060000040a000002e8800002e800050
:10206c00c000b300002e8800012e8000c0ff2f009e
:10207c0000806000002e8800c225ef00c905a90071
:10208c00c805a800c1e5a8000080fa000000060001
:10209c000400fa00100798009e00900090032000a6
:1020ac000088b90000007800000fe9001e007800dd
:1020bc000000e000020035009e007800210e880030
:1020cc000080fa00000006000400fa0010079800d7
:1020dc009e009000900320000088b900000078005a
:1020ec00000fe9001e0078000000e000020035003f
:1020fc009e007800212e88000080fa000000060067
:10210c000800fa00881f7800100798002107980033
:10211c0062479800200e80008000e80090032000a9
:10212c0000017800110009008280d800000f7800af
:10213c006011b8001e009000ae009000fcf9070082
:10214c000000e0000f003a006e4090000080fb00a1
:10215c00e20f500006003200e30f50000600320080
:10216c00e10f50005a003a00d621ef005b00370017
:10217c00d821ef0059003700da21ef0000000000f1
:10218c005600370018c0b30002002000832c240036
:10219c001e009000ae009000e5f907000000e00082
:1021ac00010034000044eb000804e0004b00320056
:1021bc006e4090000080fb00e20f500019003200ce
:1021cc00e30f50002c003200e10f500042003a00a7
:1021dc001e0078008000eb00f7f9070002002000d9
:1021ec00432624004bfa070002002000832c240015
:1021fc008df907000001be002ef907001e019000aa
:10220c00ae01900043fa07000200200003f82300ff
:10221c0027f90700caf9070000007800b00e880003
:10222c002e0037001e0078008000eb00e2f907005a
:10223c00020020004326240036fa0700020020008a
:10224c00832c240078f907000001be0019f907005f
:10225c001e019000ae0190002efa07000200200033
:10226c0003f8230012f90700b5f907000000780005
:10227c00c00e8800190037001e0078008000eb00ab
:10228c00cdf90700020020004326240021fa0700a4
:10229c0002002000832c240063f907000001be001b
:1022ac0004f907001e019000ae01900019fa070016
:1022bc000200200003f82300fdf80700a0f9070036
:1022cc0000007800d00e88000000000003003700ea
:1022dc000000000001003700000000004f047800ef
:1022ec000080fa00000006000600fa00881f780043
:1022fc001007980021079800200e80008000e8004d
:10230c009003200000017800110009008280d800a1
:10231c00000f78006011b8001e009000ae00900015
:10232c0083f907000000e00002003a00d625ef0018
:10233c001f00370018c0b30002002000832c2400bb
:10234c001e009000ae00900079f907000000e0003c
:10235c00010034000044eb000804e00014003200db
:10236c001e0078008000eb0093f9070002002000ab
:10237c0043262400e7f9070002002000832c2400e8
:10238c0029f907000001be00caf807001e019000e1
:10239c00ae019000dff907000200200003f82300d3
:1023ac00c3f8070066f9070000007800b02e88001b
:1023bc004f0478000080fa00000006000600fa00c6
:1023cc00000f780012079800230798001e00780071
:1023dc002fff070012c0b3001e009000ae0090004b
:1023ec0047ff070022c0b3001e009000ae00900013
:1023fc0043ff070032c0b3001e009000ae009000f7
:10240c003fff07000080fa00000006000600fa00fb
:10241c00000f780012079800230798001e00780020
:10242c0029ff07001e009000ae009000aeff0700d1
:10243c000080fa00000006000000fa000012800084
:10244c004600de00614060000080fb000080fa0066
:10245c00000006000000fa00001280000000d1000d
:10246c00614060000080fb000080fa000000060064
:10247c000000fa000012800000407800614060000b
:10248c000080fb000080fa00000006000000fa004b
:10249c004022ef0001368000f00f2e00008060001b
:1024ac0000b0a0000036880041358000f00f2e00ef
:1024bc00008060000080a00040358800c822a90080
:1024cc002c63a8004135800000fe2f0000806000c6
:1024dc0040358800c802a8002c43a80011368000a3
:1024ec0000fe2f00008060009000b30010368800c2
:1024fc00c842a9002c83a800cc42a8001136800049
:10250c00f00f2e0080806000007020000100700031
:10251c0010368800c862a9002ca3a800c0e2a9004c
:10252c00d0c2a800b0132000101288004422ef0083
:10253c000012800000f0a000001288000080fa0059
:10254c00000006000000fa000012800000f0a1005c
:10255c00001288000080fa00000006000200fa0059
:10256c00004f7800bbff07000000e0000c003a00b1
:10257c00ca42a9001e80fb00401288000000000027
:10258c00b4ff07000000e000fdff3a00000000006f
:10259c00b7ff07000000e000fdff3200ca42a800b0
:1025ac0040128000004078000080fa000000060015
:1025bc000400fa002047980031479800a5ff070057
:1025cc000000e0001a003a00ca42a9002e40900018
:1025dc000080fb0040128800000000009dff0700f7
:1025ec000000e000fdff3a0000000000a0ff070023
:1025fc000000e000fdff320040128000004f780028
:10260c003e4090000080fb0040128800000000005b
:10261c0090ff07000000e000fdff3a000000000002
:10262c0093ff07000000e000fdff3200ca42a80043
:10263c0040128000004078000080fa000000060084
:10264c000400fa00004f78001147980022479800c8
:10265c001e80fb00e60f50001c003200e60f5000fd
:10266c0007003c00e10f500014003200e30f500053
:10267c000d0032000000e00008003200210037009d
:10268c00e80f500018003200e80f5000130035001e
:10269c00ea0f5000170032001a00370000c0eb00a0
:1026ac00aeff0700190037001e4090000054a00038
:1026bc00ae409000beff0700140037008040eb00d6
:1026cc001e409000baff070010003700ae4090008b
:1026dc0000cab300b6ff07000c00370010ceb300e1
:1026ec009eff07000900370020ceb3009bff0700b8
:1026fc000600370031c7b30000c5b300acff0700bc
:10270c000200370000c0eb0094ff07000080fa00c5
:10271c00000006000600fa001007980041479800d8
:10272c004cff07000000e00027003a00ca42a90055
:10273c004e4090000080fb0040128800000000001a
:10274c0044ff07000000e000fdff3a00000000001d
:10275c0047ff07000000e000fdff32004012800040
:10276c00804078001e009000014878000040eb008b
:10277c00004f7800100037004822ef0000000000e6
:10278c0034ff07000000e000fdff3a0000000000ed
:10279c0037ff07000000e000fdff32001e80fb0049
:1027ac009e00900000804000411280008140780023
:1027bc00014878001e4fe8001e407800e44f50009e
:1027cc00edff3600ca42a80040128000004078009d
:1027dc000080fa00000006000600fa0010079800be
:1027ec00414798001bff07000000e00025003a005d
:1027fc00ca42a9004e4090000054a0000080fb008b
:10280c00401288000000000012ff07000000e000ea
:10281c00fdff3a000000000015ff07000000e0007b
:10282c00fdff32000040eb00004f78001100370034
:10283c0040128000104798001e80fb009e00900004
:10284c0000804000104078000080fb00401288009f
:10285c0000000000fffe07000000e000fdff3a0052
:10286c000000000002ff07000000e000fdff320046
:10287c001e4fe8001e407800e44f5000ecff36007d
:10288c00ca42a80040128000004078000080fa0084
:10289c00000006000000fa000621ef0011e1a9007b
:1028ac0011a1a90010c1a90081088000f0fc2f0023
:1028bc00008060000040a000800888001061a90022
:1028cc001021a90031058000f0ff28000080600075
:1028dc0000c0a0003005880084e0a90094e0a800a6
:1028ec000080fa00000006000000fa00800880005a
:1028fc0000f0a000800888000080fa0000000600ac
:10290c000000fa008008800000f0a1008008880018
:10291c000080fa00000006000000fa000621ef001b
:10292c000080fa00000006000200fa00000f780098
:10293c009e007800310888000080fa000000060034
:10294c000200fa00000f78009e00780061088800f1
:10295c000080fa00000006000000fa00e01c2000d5
:10296c00600888000080fa00000006000200fa00ef
:10297c00004f78001e4078000004e0000d0032008b
:10298c00d0c8b3009e40780080cf500009003e00b4
:10299c001e80fb008000eb0007f8070062302b0064
:1029ac00d3b02300a0f70700e5f70700000078007c
:1029bc00600888000080fa00000006000000fa00a1
:1029cc00300880000080fa00000006000000fa00c9
:1029dc000a21ef0013e1a90013a1a90012c1a9005b
:1029ec00910880000003200001007000900888000e
:1029fc001221a9004105800080ff2f00008060009b
:102a0c000010a000400588008500a9009500a800d2
:102a1c000080fa00000006000000fa009008800018
:102a2c0000f0a000900888000080fa00000006006a
:102a3c000000fa009008800000f0a10090088800c7
:102a4c000080fa00000006000000fa000a21ef00e6
:102a5c000080fa00000006000200fa00000f780067
:102a6c009e007800510888000080fa0000000600e3
:102a7c000200fa00000f78009e00780071088800b0
:102a8c000080fa00000006000200fa00000f780037
:102a9c001e0078000000e0000d003200701b2100c9
:102aac009e007800808f500009003e001e007800c8
:102abc008000eb00c0f70700b28b2b00d3d82300ab
:102acc0059f707009ef7070000007800700888008f
:102adc000080fa00000006000000fa005008800098
:102aec000080fa00000006000200fa00004f780097
:102afc001421ef001fe1a9001fa1a9001ec1a9000c
:102b0c009e40780063c060000080fb0063006000a2
:102b1c004400dd00f2088000f1fc2f008100610010
:102b2c0001007000f00888001e21a90081058000ba
:102b3c00f0ff28000080600000e0a0008005880005
:102b4c008760a9009760a8000080fa0000000600ca
:102b5c000000fa00f008800000f0a000f0088800e7
:102b6c000080fa00000006000000fa00f008800067
:102b7c0000f0a100f00888000080fa0000000600b8
:102b8c000000fa001421ef000080fa00000006009b
:102b9c000200fa00000f78009e007800a10888005f
:102bac000080fa00000006000200fa00000f780016
:102bbc009e007800d10888000080fa000000060012
:102bcc000000fa00a00880000080fa000000060057
:102bdc000200fa00004f78001821ef0021e1a90053
:102bec0021a1a90020c1a9009e40780063c060000b
:102bfc000080fb00630060004400dd0002098000df
:102c0c00f1fc2f00810061000100700000098800b8
:102c1c002021a9009105800080ff2f00008060001a
:102c2c005000b300900588008780a9009780a80009
:102c3c000080fa00000006000000fa000009800085
:102c4c0000f0a000000988000080fa0000000600d7
:102c5c000000fa000009800000f0a10000098800c3
:102c6c000080fa00000006000000fa001821ef00b6
:102c7c000080fa00000006000200fa00000f780045
:102c8c009e007800c10888000080fa000000060051
:102c9c000200fa00000f78009e007800e10888001e
:102cac000080fa00000006000000fa00c008800056
:102cbc000080fa00000006001000fa000000eb0093
:102ccc006404070000002000412b24006904070065
:102cdc00ff0207000080fb00300798003e009000c8
:102cec004900070040079800510798000200200097
:102cfc0003f82b004e009000de00900030f7070028
:102d0c000000e0003e0032004e019000de01900019
:102d1c00000020000106240065f6070060079800fb
:102d2c0071079800004180000000e8000041880015
:102d3c000141800030002800008060000000e000ad
:102d4c0004003d000000e900c1ff2f00008070006e
:102d5c000000e8000041880000418000c200dd0056
:102d6c0080862000008040006e019000fe019000e3
:102d7c000288be006000b800008fbe000000eb00af
:102d8c00200798000000eb00200798000c0037008b
:102d9c002e009000c200dd008086200000804000e4
:102dac001000be000001be001e00be0041f6070070
:102dbc00008fbe002e0090000000e8002007980055
:102dcc002e009000e30f5000f1ff340002002000b1
:102ddc00030824001e00be0093f60700008fbe00ff
:102dec0002002000031a24001e00be0049f7070051
:102dfc0002002000432b24002ef60700ee030700f0
:102e0c000080fa00000006000a00fa00889fbe004d
:102e1c00400798004e0090000000e00004003200d3
:102e2c00ce009000f0032000808f500003003a0089
:102e3c000000200001f82b004b0037004e009000e2
:102e4c0000407800604798003e00900061406000b0
:102e5c00804078003e0090000000d100614060008e
:102e6c0080c040003e0090004200de0061406000e7
:102e7c0080c040003e0090004300de0061406000d6
:102e8c0080c040003e0090004400de0061406000c5
:102e9c0080c040003e0090004500de0061406000b4
:102eac0000cf40003e009000614060000081fb00bc
:102ebc003e0090004200de00614060000080fb009c
:102ecc006300b900800078003e0090000000d10043
:102edc00614060000080fb0000004000008040006a
:102eec00000141003e0090004400de0061406000a3
:102efc000080fb006500b900800078003e00900067
:102f0c004300de00614060000080fb004200dd00f9
:102f1c0000804000000141003e0090004500de00b2
:102f2c00614060000080fb006600b9000000780082
:102f3c0000004100cf80de009cf607000004be00bc
:102f4c001e80fb00cf80de0098f607000001be005b
:102f5c000800be0034f607001007980021079800ff
:102f6c001e009000ae0090004f04be000080fa00de
:102f7c00000006002000fa00889fbe000000eb0055
:102f8c00000f7800090037000040eb00a902070091
:102f9c00800078001e007800000040000000470010
:102fac0076004000010878001e0fe8001e00780033
:102fbc00e40f5000f4ff36006000b8006011b80058
:102fcc0010079800210798003207980043079800d3
:102fdc000000eb00000f7800130037001e00780093
:102fec000000400000004700300890008000eb001b
:102ffc006011b8001e029000ae0290003e039000db
:10300c00ce0390000000420081804a0002014b0078
:10301c0083814b0010079800210798003207980015
:10302c00430798001e0fe8001e007800e40f5000c4
:10303c00eaff36001e009000ae0090003e019000aa
:10304c00ce01900054002000050020006033b80031
:10305c0088f70700500798008084200060079800cc
:10306c005e0090008000eb0053f6070012ae2700c4
:10307c0043042400a7f6070002f02f00f377240086
:10308c00e9f507000200200003082400a1f6070060
:10309c0070079800010f98000000eb00000f7800fb
:1030ac004c0037001e00e8004300dd00ee009000ed
:1030bc00008040001000be0018c0b3007e019000dc
:1030cc008e0990001cf607000000e00001003c0097
:1030dc000044eb000804e000020032001e0fe80080
:1030ec003c0037001e0078004300dd00ee0090002d
:1030fc000080400020029000b00290001e00e8000a
:10310c004300dd00ee00900000804000b000900015
:10311c00200090000001be000400be0064f5070012
:10312c000004be001e00e8004300dd00ee0090002d
:10313c00008040001000be000001be007e00900028
:10314c008e0890005af507000001be000800be0072
:10315c0070f607000004be001e0078004300dd007e
:10316c00ee009000008040001002be001e00e8003f
:10317c004300dd00ee009000008040001000be0017
:10318c000001be000400be0049f507000001be00ae
:10319c000800be00a4f507000002be001e00e800f7
:1031ac004300dd00ee00900000804000b000900075
:1031bc00200090000001be000400be003df5070099
:1031cc00100f9800210f98001e089000ae08900078
:1031dc00040037001e007800e20f5000b1ff3600eb
:1031ec006000b8004f04be000080fa00000006002a
:1031fc000000fa000e0307000080fa000000060031
:10320c000000fa00e80207000080fa000000060047
:10321c000000fa00f0408000fd0f50000c003e0052
:10322c000000eb000b030700f1408000b0aa2a005d
:10323c000008b8000100d1006a00b9000000780055
:10324c008000eb00dcf507000a030700560037008e
:10325c00f1408000c0032000808f50000f003e0022
:10326c000000eb00fb020700f0408000fe00500065
:10327c00b0aa2a000008b8000100d1006a00b90009
:10328c000000780041062000008050008000eb0018
:10329c00c9f50700f702070043003700f140800032
:1032ac0090052000808f50000e003e001000200082
:1032bc00e8020700f040800041fc2f0080804000b5
:1032cc00b0aa2a000008b8000100d1006a00b900b9
:1032dc00000078008000eb00b7f50700e50207005e
:1032ec0031003700f140800080072000808f5000b3
:1032fc0010003e0010002000d6020700f0408000b5
:10330c0061fa2f0080804000b0aa2a000008b800a3
:10331c000100d1006a00b9000000780041062000cd
:10332c00008050008000eb00a3f50700d1020700dd
:10333c001d003700f140800010082000808f5000e5
:10334c0004003e0000002000011f24009a02070028
:10335c0015003700f1408000b0082000808f50002d
:10336c0004003e0000002000412b240092020700c4
:10337c000d003700f1408000b0082000808f500015
:10338c0004003e0000002000613124008a02070086
:10339c0005003700f1408000700c2000808f500039
:1033ac00010036001e28ef00f04080000000e8000d
:1033bc00f04088000080fa00000006000000fa00cf
:1033cc00e140800070022000808f500007003e001a
:1033dc00e040800079004000000040008000eb00dd
:1033ec0075f50700740207000e003700e1408000fd
:1033fc00f0042000808f500009003e00e140800066
:10340c00e0ff2f000088b90000007800200db0000c
:10341c008000eb0068f50700670207000100370029
:10342c001c28ef00e04080000000e800e04088002d
:10343c000080fa00000006000000fa0046fd0700bc
:10344c004006200090fd07001028ef001228ef0026
:10345c001428ef001628ef000c28ef000e28ef00c0
:10346c000828ef000a28ef001ffd07006afd07007f
:10347c00010037000000000060408000e10f5000a8
:10348c0010003a000c28ef0040408000e50f50007f
:10349c0003003a001000200080408800080037002c
:1034ac0040408000e90f5000050036000828ef006e
:1034bc001000200080408800100020009040880000
:1034cc00ad01070080408000e10f500002003a007f
:1034dc001028ef00ab01070090408000e10f500076
:1034ec0002003a001228ef00a9010700704080008a
:1034fc00e10f500010003a000e28ef005040800001
:10350c00e50f500003003a0010002000a040880096
:10351c000800370050408000e90f500005003600cd
:10352c000a28ef0010002000a040880010002000a6
:10353c00b0408800a5010700a0408000e10f5000ba
:10354c0002003a001428ef00a3010700b0408000ed
:10355c00e10f5000c7ff3a001628ef00a101070049
:10356c00c5ff37000000fa00601980000040a00081
:10357c0060198800c842a900c0e2a900d0c2a90005
:10358c000080fa00000006000000fa0060168000bf
:10359c004200de006140600000c0ea006140600053
:1035ac000080fb00610060004200dd0051168000cd
:1035bc000120a10001007000501688000080fa0064
:1035cc00000006000000fa00201680004700de0014
:1035dc006140600000c0ea00614060000080fb00b8
:1035ec00610060004700dd00111680000170a10031
:1035fc0001007000101688000080fa000000060020
:10360c000000fa00a01680004600de006140600059
:10361c0000c0ea00614060000080fb0061006000b7
:10362c004600dd00911680000160a10001007000d1
:10363c00901688000080fa00000006000000fa00d6
:10364c0081e0a80070c0b3000600070060c0b300a2
:10365c001400070050c0b300250007000080fa00da
:10366c00000006000200fa00004f78009e4078002f
:10367c0067c060000080fb006700600022058000ce
:10368c0081ff2f008100610001007000200588007f
:10369c008400a9008200a8009400a8000080fa0011
:1036ac00000006000200fa00004f78000134800090
:1036bc0000f0210001007000003488009e4078006a
:1036cc0067c060000080fb0067006000720580002e
:1036dc0081ff2f00810061000100700070058800df
:1036ec008680a9009680a8000080fa0000000600e1
:1036fc000200fa00004f78001134800000fe2f0009
:10370c00008060006001b300103488009e40780097
:10371c0067c060000080fb00670060004400dd00b3
:10372c0092058000f1f82f0081006100010070000b
:10373c009005880087a0a90097a0a8008240a80047
:10374c000080fa00000006000000fa00d040800063
:10375c00f80f500008003e0012002000a1c0b3007a
:10376c0010c4b30043f90700d04080000000e8000b
:10377c00d04088000d003700d1408000300620007a
:10378c00808f500008003e000001eb00a1c0b30088
:10379c0010c4b30037f90700d04080000000e800e7
:1037ac00d0408800010037001a28ef000080fa0092
:1037bc00000006000000fa00c14080003006200026
:1037cc00808f500011003e00c1408000d0cc2c00f6
:1037dc000008b8004408de006100600000f0a7009b
:1037ec000000ea000000e9004f00de000001780054
:1037fc00a1c0b30010c4b3001ef90700c040800084
:10380c000000e800c04088000d003700c140800077
:10381c00700c2000808f500008003e000001eb006f
:10382c00a1c0b30010c4b30012f90700c04080005f
:10383c000000e800c0408800010037001828ef00a5
:10384c000080fa00000006000400fa00100798003f
:10385c000040eb00004f7800060037009e019000fe
:10386c00120020009e40780030c4b30047f80700d7
:10387c001e4fe8001e407800e54f5000f7ff360061
:10388c000080fa00000006000400fa0010079800ff
:10389c0030c4b300aaf90700000f78001e00900096
:1038ac000000e00003003200f00320001e0f700047
:1038bc000200370000fc2f001e0f60009e007800f5
:1038cc0030c4b30084f907000080fa000000060041
:1038dc000200fa000000eb00dbff070010002000e4
:1038ec00e9ff0700500220000100200068010700da
:1038fc0010002000d4ff070040e72000010020004a
:10390c006301070030c4b3008df907000040780054
:10391c00f1c3b300014f60001e4078000080fa0034
:04392c000000060091
:020000040000fa
:10393000280800002000000000000000000800002f
:103940000800000000000000080800000800000057
:103950000000000010080000080000000000000047
:103960001808000004000000000000001c0800000f
:1039700004000000000000006808000010000000c3
:1039800002000000000060004000000060400000f5
:1039900000604000000060004000000020080000bf
:1039a00002000000000000004808000020000000a5
:1039b000020000006666060041000000803f000033
:1039c00000e04000cdcc4c003e000000d040cd00d7
:1039d000cccc3d000000c000400000000000000012
:1039e000220800000200000000000000240800007f
:1039f0000200000002000000040000002608000091
:0c3a0000020000000000000000000000b8
:020000040000fa
:103a0c000000fa00c002a800c022a8002c03a900e4
:103a1c002c23a9002023ef002223ef002143a80030
:103a2c0000f021002019880021e3a8000080fa0092
:103a3c00000006000200fa00004f780040198000d8
:103a4c00004078007f4060008080fb001e80fb00ff
:103a5c00808f5000090032009e4078007fc06000cb
:103a6c000080fb007f0060004219800001fe2f00e7
:103a7c008100610001007000401988002023a8001b
:103a8c00900b200001002000010107002023a90059
:103a9c000000000000198000610060000000e000e0
:103aac00fcff3200001880000080fa0000000600c5
:103abc000000fa000001eb00a1c0b30010c4b30079
:103acc006cf807000080fa00000006000000fa0005
:103adc0012002000a1c0b30010c4b30065f80700a9
:103aec000080fa00000006000000fa00114180007e
:103afc00301f2000808f500011003e0010418000cc
:103b0c00610060000000e00008003a0024c8bf001b
:103b1c000004e00006003200ecff070024c8bf00e0
:103b2c000040e90024e8b70001003700e0ff07007f
:103b3c00104180000000e8001041880003003700ad
:103b4c0040c0b30024e8b7002228ef000080fa0040
:103b5c00000006000000fa00db0007008001eb000b
:103b6c0012002000a1c0b30010c4b30087f70700f7
:103b7c000080fa00000006000000fa000080fa0045
:103b8c00000006000000fa000080fa0000000600a9
:103b9c000000fa00d70007000000e000050032002a
:103bac0012002000a1c0b30010c4b30031f807000c
:103bbc00040037000001eb00a1c0b30010c4b30037
:103bcc002cf807000080fa00000006000000fa0044
:103bdc000080fa00000006000000fa000080fa00e5
:103bec00000006000000fa000080fa000000060049
:103bfc000000fa000080fa00000006000200fa0043
:103c0c00004f78001e407800c4f607000080fa00d0
:103c1c00000006000000fa00e9f607000080fa0038
:103c2c00000006000200fa00004f78000080fa0045
:103c3c00000006000200fa0030408000e10f500046
:103c4c000e003a000628ef000040eb00004f780011
:103c5c00050037001e80fb00818220006140780047
:103c6c00f0ff07001e4fe80000c8bf009e40780020
:103c7c0080cf5000f7ff39000068ef000080fa0099
:103c8c00000006000c00fa00881f7800008fbe00b0
:103c9c0022079800330798004407980055079800ae
:103cac0018c0b3004e019000de0190001e00be0053
:103cbc0021f307000000e00001003c000044eb0091
:103ccc000804e000030032004e009000de0090007b
:103cdc000e00370018c0b3002e019000be019000fa
:103cec001e00be0012f307000000e00001003500ca
:103cfc000044eb000804e000030032002e009000aa
:103d0c00be009000010037001e00be004f0478007a
:103d1c000080fa00000006000000fa00d122a80082
:103d2c00c9e2a800e134800000fe2f000080600092
:103d3c00f000b300e0348800e1348000f00f2e0076
:103d4c00808060000090210001007000e034880049
:103d5c00010f800070fe2f00008060000040a0006a
:103d6c00000f8800010f800000702000010070001f
:103d7c00000f880000d02700200f88000080fa0078
:103d8c00000006000000fa00200f80000080fa00fe
:103d9c00000006000000fa0000d02700200f880069
:103dac000080fa00000006000000fa0079f8070015
:103dbc000080fa00000006000800fa0020079800b6
:103dcc003107980002002000432b24002e009000a5
:103ddc00be00900036f2070002002000032a2400e7
:103dec0091f20700020020000306240049f30700ab
:103dfc0002002000030f24002ef20700008fbe00eb
:103e0c00345c2f00c5102400d2cc2c00430c2400b1
:103e1c001e00be009bff0700008fbe0012c0b30047
:103e2c001e00be00b6f807000080fa000000060075
:103e3c000000fa0057f807008001eb001200200088
:103e4c0091c0b30010c4b300d0f607000080fa0094
:103e5c00000006000200fa00000f78001e01780036
:103e6c0091c0b30010c4b30082f707000080fa00c1
:103e7c00000006000400fa00008fbe0022c0b30050
:103e8c001e00be009ef807000080fa00000006002d
:020000040000fa
:103e9c00f03fb1000180b10006003500ee030900cf
:103eac0000000000403fb1000180b100fbff3d006d
:103ebc001000b000203fb000020035000080090067
:083ecc000000000000000600e8
:020000040000fa
:103ed4000000fa0013000700cbfe07002ff80700cc
:103ee400d8fd07006bf907008dff07006bfa070088
:103ef400b8fa07000080fa00000006000000fa008b
:103f0400304180000080fa00000006000200fa0040
:103f1400000f78009e007800314188000080fa008c
:103f2400000006000000fa00413a800000fc2f0067
:103f3400008060000000a000403a88000080fa0081
:103f4400000006000000fa0004ff07003cfd070023
:043f5400ffff370034
:020000040000fa
:0200000401f009
:04000c008000000070
:020000040000fa
:0200000401f009
:04001c00deff000003
:00000001FF
